HDR_BENEDATASHR20191029
1000000278           Vdttmaufapxxxaebwxjtuxn                                     Kolgb                                   1925091412622 Qzmrairjrkfubujrcybzotjswvbsyxk Blvd                                                                                                                           Uhojeoewkg                              ST00000    U20191025               201910311-800TNA9994Vmpdvjvjeyciihzzszfmzdeeisxflme ACO                                   
1000009420           Yricmhhvkgcyqaqprxkrwdomv                                   Xkgqeksvsdafmlbmn                       19020529686 Jkzhbqnekvxswtky Blvd                                                                                                                                            Uvyasrenvsejhivwhvjbuc                  ST00000    M20191026               201910301-800TNA9994Tizfluoirflvhrtqiardpkfnipxnqerujxrqicvftupfujpkklhfsplsxydkfhtrd ACO 
1000009420           Yricmhhvkgcyqaqprxkrwdomv                                   Xkgqeksvsdafmlbmn                       19020529686 Jkzhbqnekvxswtky Blvd                                                                                                                                            Uvyasrenvsejhivwhvjbuc                  ST00000    M20191027201910291800 TY               A9994Tizfluoirflvhrtqiardpkfnipxnqerujxrqicvftupfujpkklhfsplsxydkfhtrd ACO 
1000011403           Drcsaezdeu                                                  Fwcyrcpzanltsazwcxpuhkzqgd              194103022 Mbtosjpjwbzpoyobclykffwhuqhghxxddx Dr                                                                                                                              Lqweipehpaoxomvy                        ST00000    U20191025               201910231-800TNA9994Glfvhvyylgdmxujrxfhl ACO                                              
1000011403           Drcsaezdeu                                                  Fwcyrcpzanltsazwcxpuhkzqgd              194103022 Mbtosjpjwbzpoyobclykffwhuqhghxxddx Dr                                                                                                                              Lqweipehpaoxomvy                        ST00000    U20191026               201910301-800TNA9994Glfvhvyylgdmxujrxfhl ACO                                              
1000011403           Drcsaezdeu                                                  Fwcyrcpzanltsazwcxpuhkzqgd              194103022 Mbtosjpjwbzpoyobclykffwhuqhghxxddx Dr                                                                                                                              Lqweipehpaoxomvy                        ST00000    U20191025201910241800 TN201910221-800TNA9994Glfvhvyylgdmxujrxfhl ACO                                              
1000014054           Pgdnkpqihctcvasthwaotd                                      W                                       1919112713228 Namauszxej Ave                                                                                                                                                 Szsvshdhgplh                            ST00000    F20191026201910261800 TY               A9994Ffxqlzpetazhrkjdujvbtolbcosqpsptdtbscdnwaqqzaauxndljddcggphjg ACO     
1000014054           Pgdnkpqihctcvasthwaotd                                      W                                       1919112713228 Namauszxej Ave                                                                                                                                                 Szsvshdhgplh                            ST00000    F20191023               201910311-800TNA9994Ffxqlzpetazhrkjdujvbtolbcosqpsptdtbscdnwaqqzaauxndljddcggphjg ACO     
1000025604           Ctchecquy                                                   Tqpqeftxdfov                            1914112420198 Trjxpixwlsivxhhfyvltlaoqigadueztvkcuzr Way                                                                                                                     Xoybumuivjpkvydmhomi                    ST00000    M20191025               201910271-800TNA9994Xbrbyeusdlkuwshqtgupuhwugdlar ACO                                     
1000026025           B                                                           Ovdvwubpceuqrjnhpzpgk                   1942081110101 Hjtcvhwitguvjohtbdxnvybgjk Ave                                                                                                                                 Ioqrnqckpttftmxtev                      ST00000    U20191022               201910311-800TNA9994Vagzjlwipsrqgsiekafqslrbajbiu ACO                                     
1000026025           B                                                           Ovdvwubpceuqrjnhpzpgk                   1942081110101 Hjtcvhwitguvjohtbdxnvybgjk Ave                                                                                                                                 Ioqrnqckpttftmxtev                      ST00000    U20191026               201910241-800TNA9994Vagzjlwipsrqgsiekafqslrbajbiu ACO                                     
1000030390           Lgxjkiwcg                                                   Qpoiybcqeoxbndozjqz                     192611084933 Woisrngmxupnlxphwoblc Blvd                                                                                                                                      Ajwfsdspgehcgaurecmcdt                  ST00000    F20191027               201910241-800TNA9994Kxapoxwgeozrmbdsdxwrytdnbilzakcmqtilkndrvlautofxtzkyxhbkwxpafc ACO    
1000035535           Njyhidjehu                                                  Brkhntnmqppoyrhgbuzqqppabtqrm           1926043015576 Gddvjehihbmmuyjejuwkjmux Ave                                                                                                                                   Ycmyosddptoignwnbfzz                    ST00000    F20191025201910251800 TN               A9994Flujzdugstwwqlsvtcwsejvenjwi ACO                                      
1000035535           Njyhidjehu                                                  Brkhntnmqppoyrhgbuzqqppabtqrm           1926043015576 Gddvjehihbmmuyjejuwkjmux Ave                                                                                                                                   Ycmyosddptoignwnbfzz                    ST00000    F20191026               201910311-800TNA9994Flujzdugstwwqlsvtcwsejvenjwi ACO                                      
1000035535           Njyhidjehu                                                  Brkhntnmqppoyrhgbuzqqppabtqrm           1926043015576 Gddvjehihbmmuyjejuwkjmux Ave                                                                                                                                   Ycmyosddptoignwnbfzz                    ST00000    F20191027201910241800 TN               A9994Flujzdugstwwqlsvtcwsejvenjwi ACO                                      
1000040053           Nfznpnsewrmvmiymxyqaznloavs                                 Ui                                      190007191029 Zmjaxijrppiwgwqkpfoziivxpmbhhcizut Blvd                                                                                                                         Ofxzwgpohwwbjtojklgvnp                  ST00000    M20191029201910251800 TN               A9994Yvzmzujxglqxpzfyuyosrtvxpeboyrng ACO                                  
1000040053           Nfznpnsewrmvmiymxyqaznloavs                                 Ui                                      190007191029 Zmjaxijrppiwgwqkpfoziivxpmbhhcizut Blvd                                                                                                                         Ofxzwgpohwwbjtojklgvnp                  ST00000    M20191023               201910271-800TNA9994Yvzmzujxglqxpzfyuyosrtvxpeboyrng ACO                                  
1000048149           Jgkqczwwjdsplabkhavlgheizxrt                                Ngdrfbvqtleevfsb                        193503096669 Dkxixmhzqzvhkeuqheqilxzsixdkwidwh Way                                                                                                                           Zrzkqesaouieiybreadxoosxpmqirginornqyqs ST00000    F20191024201910281800 TY201910281-800TNA9994Vqvayxknqircscqpkcxtahjkg ACO                                         
1000053084           Xahvuqqqtuiwsuoigq                                          Luicfqfotgd                             193201038707 Arzfls Way                                                                                                                                                      Ibqpvtyvvhvsnhpzbjusrozahmgkiojadaiyn   ST00000    M20191028201910251800 TN               A9994Tcprwvxoqzbteflexdxzvkcmvdmaosgzfgzbeqmgef ACO                        
1000053084           Xahvuqqqtuiwsuoigq                                          Luicfqfotgd                             193201038707 Arzfls Way                                                                                                                                                      Ibqpvtyvvhvsnhpzbjusrozahmgkiojadaiyn   ST00000    M20191026201910261800 TY               A9994Tcprwvxoqzbteflexdxzvkcmvdmaosgzfgzbeqmgef ACO                        
1000053084           Xahvuqqqtuiwsuoigq                                          Luicfqfotgd                             193201038707 Arzfls Way                                                                                                                                                      Ibqpvtyvvhvsnhpzbjusrozahmgkiojadaiyn   ST00000    M20191028201910241800 TN201910231-800TNA9994Tcprwvxoqzbteflexdxzvkcmvdmaosgzfgzbeqmgef ACO                        
1000055595           T                                                           Njaf                                    1903020842673 Hgkpxfgidpqeijozqblthqh Dr                                                                                                                                     Vdmwsd                                  ST00000    U20191023201910231800 TN201910231-800TNA9994Acmeeheidykosgdjofqpvsvjvcaoaatlkanhnnwmvtezq ACO                     
1000066896           Xltbyazilcvwriikslii                                        U                                       192511287324 Kncrprlegtsdqimynovgvltplmcizwpgkcbypjzk Ave                                                                                                                    Znwffmxqfbnuajaxhwofkpgm                ST00000    U20191026201910271800 TY201910311-800TNA9994Cspaazydnbibuiuotclrfgtwwfjwjgrizvbcgzzkpxznozlfdjvxwvejkonnnkt ACO   
1000067905           Pkrgzrpwmiuhee                                              Kbccdqvgp                               1938092523179 Zebi Blvd                                                                                                                                                      Cegx                                    ST00000    U20191023201910291800 TY201910261-800TNA9994Pcazqobyqessbyicumxsnysrlhhagrg ACO                                   
1000070427           Axxefyaqeyuwamfeyzxubomq                                    Wbfcwfmbquo                             1901080423928 Vazniytoafvmrupgpwrmlkjhbsbagsjzdcdj Ave                                                                                                                       Gvxptxdegk                              ST00000    F20191027               201910311-800TNA9994Hric ACO                                                              
1000079748           Eptflvmzcinkuwxnlicxmxsjp                                   Wajrazytuosjcgjw                        19480603345 Luzvrwujabqwdvtarkijzzfnszwafwnn Dr                                                                                                                              Xcjkx                                   ST00000    M20191025201910301800 TY201910231-800TNA9994Jxgcphvxsoouylmkrsjaywsokregakxntshzwgiuufztnfakigxom ACO             
1000087481           Rjstypqxnyxlvkzmsn                                          Owdqcccakylioevvroxppvpu                1938030930386 Vqbijvcvjozqymiwbdoqcyxpnuanvc St                                                                                                                              Orz                                     ST00000    F20191025201910281800 TY               A9994Jovuddtnifsesrpdpgzphkxh ACO                                          
1000087481           Rjstypqxnyxlvkzmsn                                          Owdqcccakylioevvroxppvpu                1938030930386 Vqbijvcvjozqymiwbdoqcyxpnuanvc St                                                                                                                              Orz                                     ST00000    F20191023201910221800 TN               A9994Jovuddtnifsesrpdpgzphkxh ACO                                          
1000098726           Dpzphbysbpno                                                Ypqyprobw                               1905070839147 Xrnotphgralzvqhdslbgzhtuuzxhvidnbcg Way                                                                                                                        Scxokgghpljkmjxnflkyiq                  ST00000    U20191023               201910241-800TNA9994Kyxbmrvzgzhfijxehjfpcoishpbmhcss ACO                                  
1000098726           Dpzphbysbpno                                                Ypqyprobw                               1905070839147 Xrnotphgralzvqhdslbgzhtuuzxhvidnbcg Way                                                                                                                        Scxokgghpljkmjxnflkyiq                  ST00000    U20191024201910231800 TN               A9994Kyxbmrvzgzhfijxehjfpcoishpbmhcss ACO                                  
TRL_BENEDATASHR2019102930        